{
  "_format": "hh-sol-artifact-1",
  "contractName": "AgentRegistry",
  "sourceName": "contracts/AgentRegistry.sol",
  "abi": [
    {
      "inputs": [],
      "stateMutability": "nonpayable",
      "type": "constructor"
    },
    {
      "inputs": [
        {
          "internalType": "address",
          "name": "owner",
          "type": "address"
        }
      ],
      "name": "OwnableInvalidOwner",
      "type": "error"
    },
    {
      "inputs": [
        {
          "internalType": "address",
          "name": "account",
          "type": "address"
        }
      ],
      "name": "OwnableUnauthorizedAccount",
      "type": "error"
    },
    {
      "anonymous": false,
      "inputs": [
        {
          "indexed": true,
          "internalType": "address",
          "name": "agent",
          "type": "address"
        },
        {
          "indexed": false,
          "internalType": "string",
          "name": "name",
          "type": "string"
        }
      ],
      "name": "AgentRegistered",
      "type": "event"
    },
    {
      "anonymous": false,
      "inputs": [
        {
          "indexed": true,
          "internalType": "address",
          "name": "agent",
          "type": "address"
        },
        {
          "indexed": false,
          "internalType": "enum AgentRegistry.AgentStatus",
          "name": "status",
          "type": "uint8"
        }
      ],
      "name": "AgentStatusUpdated",
      "type": "event"
    },
    {
      "anonymous": false,
      "inputs": [
        {
          "indexed": true,
          "internalType": "address",
          "name": "guardRail",
          "type": "address"
        }
      ],
      "name": "GuardRailUpdated",
      "type": "event"
    },
    {
      "anonymous": false,
      "inputs": [
        {
          "indexed": true,
          "internalType": "address",
          "name": "previousOwner",
          "type": "address"
        },
        {
          "indexed": true,
          "internalType": "address",
          "name": "newOwner",
          "type": "address"
        }
      ],
      "name": "OwnershipTransferred",
      "type": "event"
    },
    {
      "anonymous": false,
      "inputs": [
        {
          "indexed": true,
          "internalType": "address",
          "name": "agent",
          "type": "address"
        },
        {
          "indexed": false,
          "internalType": "uint256",
          "name": "newScore",
          "type": "uint256"
        }
      ],
      "name": "TrustScoreUpdated",
      "type": "event"
    },
    {
      "inputs": [
        {
          "internalType": "uint256",
          "name": "",
          "type": "uint256"
        }
      ],
      "name": "agentList",
      "outputs": [
        {
          "internalType": "address",
          "name": "",
          "type": "address"
        }
      ],
      "stateMutability": "view",
      "type": "function"
    },
    {
      "inputs": [
        {
          "internalType": "address",
          "name": "",
          "type": "address"
        }
      ],
      "name": "agents",
      "outputs": [
        {
          "internalType": "address",
          "name": "agentAddress",
          "type": "address"
        },
        {
          "internalType": "string",
          "name": "name",
          "type": "string"
        },
        {
          "internalType": "enum AgentRegistry.AgentStatus",
          "name": "status",
          "type": "uint8"
        },
        {
          "internalType": "uint256",
          "name": "trustScore",
          "type": "uint256"
        },
        {
          "internalType": "uint256",
          "name": "registeredAt",
          "type": "uint256"
        },
        {
          "internalType": "uint256",
          "name": "txCount",
          "type": "uint256"
        },
        {
          "internalType": "uint256",
          "name": "blockedCount",
          "type": "uint256"
        }
      ],
      "stateMutability": "view",
      "type": "function"
    },
    {
      "inputs": [
        {
          "internalType": "address",
          "name": "_agent",
          "type": "address"
        }
      ],
      "name": "getAgent",
      "outputs": [
        {
          "components": [
            {
              "internalType": "address",
              "name": "agentAddress",
              "type": "address"
            },
            {
              "internalType": "string",
              "name": "name",
              "type": "string"
            },
            {
              "internalType": "enum AgentRegistry.AgentStatus",
              "name": "status",
              "type": "uint8"
            },
            {
              "internalType": "uint256",
              "name": "trustScore",
              "type": "uint256"
            },
            {
              "internalType": "uint256",
              "name": "registeredAt",
              "type": "uint256"
            },
            {
              "internalType": "uint256",
              "name": "txCount",
              "type": "uint256"
            },
            {
              "internalType": "uint256",
              "name": "blockedCount",
              "type": "uint256"
            }
          ],
          "internalType": "struct AgentRegistry.Agent",
          "name": "",
          "type": "tuple"
        }
      ],
      "stateMutability": "view",
      "type": "function"
    },
    {
      "inputs": [],
      "name": "getAllAgents",
      "outputs": [
        {
          "internalType": "address[]",
          "name": "",
          "type": "address[]"
        }
      ],
      "stateMutability": "view",
      "type": "function"
    },
    {
      "inputs": [],
      "name": "guardRail",
      "outputs": [
        {
          "internalType": "address",
          "name": "",
          "type": "address"
        }
      ],
      "stateMutability": "view",
      "type": "function"
    },
    {
      "inputs": [
        {
          "internalType": "address",
          "name": "_agent",
          "type": "address"
        },
        {
          "internalType": "bool",
          "name": "_blocked",
          "type": "bool"
        }
      ],
      "name": "incrementTxCount",
      "outputs": [],
      "stateMutability": "nonpayable",
      "type": "function"
    },
    {
      "inputs": [
        {
          "internalType": "address",
          "name": "_agent",
          "type": "address"
        }
      ],
      "name": "isAgentRegistered",
      "outputs": [
        {
          "internalType": "bool",
          "name": "",
          "type": "bool"
        }
      ],
      "stateMutability": "view",
      "type": "function"
    },
    {
      "inputs": [
        {
          "internalType": "address",
          "name": "_agent",
          "type": "address"
        }
      ],
      "name": "isTrusted",
      "outputs": [
        {
          "internalType": "bool",
          "name": "",
          "type": "bool"
        }
      ],
      "stateMutability": "view",
      "type": "function"
    },
    {
      "inputs": [],
      "name": "owner",
      "outputs": [
        {
          "internalType": "address",
          "name": "",
          "type": "address"
        }
      ],
      "stateMutability": "view",
      "type": "function"
    },
    {
      "inputs": [
        {
          "internalType": "address",
          "name": "_agent",
          "type": "address"
        },
        {
          "internalType": "string",
          "name": "_name",
          "type": "string"
        }
      ],
      "name": "registerAgent",
      "outputs": [],
      "stateMutability": "nonpayable",
      "type": "function"
    },
    {
      "inputs": [],
      "name": "renounceOwnership",
      "outputs": [],
      "stateMutability": "nonpayable",
      "type": "function"
    },
    {
      "inputs": [
        {
          "internalType": "address",
          "name": "_guardRail",
          "type": "address"
        }
      ],
      "name": "setGuardRail",
      "outputs": [],
      "stateMutability": "nonpayable",
      "type": "function"
    },
    {
      "inputs": [
        {
          "internalType": "address",
          "name": "newOwner",
          "type": "address"
        }
      ],
      "name": "transferOwnership",
      "outputs": [],
      "stateMutability": "nonpayable",
      "type": "function"
    },
    {
      "inputs": [
        {
          "internalType": "address",
          "name": "_agent",
          "type": "address"
        },
        {
          "internalType": "enum AgentRegistry.AgentStatus",
          "name": "_status",
          "type": "uint8"
        }
      ],
      "name": "updateStatus",
      "outputs": [],
      "stateMutability": "nonpayable",
      "type": "function"
    },
    {
      "inputs": [
        {
          "internalType": "address",
          "name": "_agent",
          "type": "address"
        },
        {
          "internalType": "uint256",
          "name": "_score",
          "type": "uint256"
        }
      ],
      "name": "updateTrustScore",
      "outputs": [],
      "stateMutability": "nonpayable",
      "type": "function"
    }
  ],
  "bytecode": "0x608060405234801561001057600080fd5b50338061003757604051631e4fbdf760e01b81526000600482015260240160405180910390fd5b61004081610046565b50610096565b600080546001600160a01b038381166001600160a01b0319831681178455604051919092169283917f8be0079c531659141344cd1fd0a4f28419497f9722a3daafe3b4186f6b6457e09190a35050565b6110f6806100a56000396000f3fe608060405234801561001057600080fd5b50600436106100f55760003560e01c80638da5cb5b11610097578063ed10bec211610066578063ed10bec21461020a578063f2fde38b1461021d578063fb3551ff14610230578063fd66091e1461025057600080fd5b80638da5cb5b146101c0578063938fa088146101d157806396d64879146101e45780639d2cbfd4146101f757600080fd5b806344c5bbf8116100d357806344c5bbf814610152578063689b6c4414610165578063715018a6146101a3578063860e4ac6146101ab57600080fd5b8063155693a2146100fa57806322b833d81461010f5780632f80c54f14610122575b600080fd5b61010d610108366004610be8565b610276565b005b61010d61011d366004610c0a565b610315565b610135610130366004610c8d565b610566565b6040516001600160a01b0390911681526020015b60405180910390f35b61010d610160366004610ca6565b610590565b610193610173366004610be8565b6001600160a01b0316600090815260016020526040902060040154151590565b6040519015158152602001610149565b61010d610655565b6101b3610669565b6040516101499190610ce1565b6000546001600160a01b0316610135565b600354610135906001600160a01b031681565b6101936101f2366004610be8565b6106cb565b61010d610205366004610d2e565b610706565b61010d610218366004610d5f565b610802565b61010d61022b366004610be8565b6108d9565b61024361023e366004610be8565b610917565b6040516101499190610e07565b61026361025e366004610be8565b610a7c565b6040516101499796959493929190610e7d565b61027e610b4f565b6001600160a01b0381166102cb5760405162461bcd60e51b815260206004820152600f60248201526e496e76616c6964206164647265737360881b60448201526064015b60405180910390fd5b600380546001600160a01b0319166001600160a01b0383169081179091556040517f024c6dc5cc8a339cebeb0ee982e080a92961c40e74452cbc100aaf2e0549f16090600090a250565b61031d610b4f565b6001600160a01b0383166103655760405162461bcd60e51b815260206004820152600f60248201526e496e76616c6964206164647265737360881b60448201526064016102c2565b6001600160a01b038316600090815260016020526040902060040154156103ce5760405162461bcd60e51b815260206004820152601860248201527f4167656e7420616c72656164792072656769737465726564000000000000000060448201526064016102c2565b6040518060e00160405280846001600160a01b0316815260200183838080601f016020809104026020016040519081016040528093929190818152602001838380828437600092018290525093855250506001602080850182905260646040808701919091524260608701526080860185905260a09095018490526001600160a01b03898116855282825294909320855181546001600160a01b03191695169490941784559184015191830191610486915082610f73565b50604082015160028201805460ff191660018360038111156104aa576104aa610dcf565b0217905550606082015160038201556080820151600482015560a0820151600582015560c090910151600690910155600280546001810182556000919091527f405787fa12a823e0f2b7631cc41b3ba8828b3321ca811111fa75cd3aa3bb5ace0180546001600160a01b0319166001600160a01b0385169081179091556040517fda816ca2fc37b9eecec62ae8263008ec6be1afb38dc28bc9c7c51d7e348da9c2906105599085908590611033565b60405180910390a2505050565b6002818154811061057657600080fd5b6000918252602090912001546001600160a01b0316905081565b610598610b4f565b6001600160a01b0382166000908152600160205260409020600401546105d05760405162461bcd60e51b81526004016102c290611062565b6001600160a01b03821660009081526001602081905260409091206002018054839260ff199091169083600381111561060b5761060b610dcf565b0217905550816001600160a01b03167f3e6af4de7e4ac852316386b4121ebdbc2a21fc4d711aaab2b539e5103941178782604051610649919061108b565b60405180910390a25050565b61065d610b4f565b6106676000610b7c565b565b606060028054806020026020016040519081016040528092919081815260200182805480156106c157602002820191906000526020600020905b81546001600160a01b031681526001909101906020018083116106a3575b5050505050905090565b600060016001600160a01b03831660009081526001602052604090206002015460ff1660038111156106ff576106ff610dcf565b1492915050565b6003546001600160a01b031633146107595760405162461bcd60e51b815260206004820152601660248201527513db9b1e4811dd585c9914985a5b08185b1b1bddd95960521b60448201526064016102c2565b6001600160a01b0382166000908152600160205260409020600401546107915760405162461bcd60e51b81526004016102c290611062565b6001600160a01b038216600090815260016020819052604082206005018054919290916107bf90849061109f565b909155505080156107fe576001600160a01b038216600090815260016020819052604082206006018054919290916107f890849061109f565b90915550505b5050565b61080a610b4f565b6001600160a01b0382166000908152600160205260409020600401546108425760405162461bcd60e51b81526004016102c290611062565b60648111156108895760405162461bcd60e51b8152602060048201526013602482015272053636f7265206d75737420626520302d31303606c1b60448201526064016102c2565b6001600160a01b03821660008181526001602052604090819020600301839055517f16bf5e9c27e8fb3837dca08521258eaf9f8e21bb809d3dd7a1a4a00093c99a44906106499084815260200190565b6108e1610b4f565b6001600160a01b03811661090b57604051631e4fbdf760e01b8152600060048201526024016102c2565b61091481610b7c565b50565b6109576040805160e08101825260008082526060602083015290918201908152602001600081526020016000815260200160008152602001600081525090565b6001600160a01b03808316600090815260016020818152604092839020835160e081019094528054909416835290830180549293929184019161099990610eea565b80601f01602080910402602001604051908101604052809291908181526020018280546109c590610eea565b8015610a125780601f106109e757610100808354040283529160200191610a12565b820191906000526020600020905b8154815290600101906020018083116109f557829003601f168201915b5050509183525050600282015460209091019060ff166003811115610a3957610a39610dcf565b6003811115610a4a57610a4a610dcf565b815260038201546020820152600482015460408201526005820154606082015260069091015460809091015292915050565b6001602081905260009182526040909120805491810180546001600160a01b0390931692610aa990610eea565b80601f0160208091040260200160405190810160405280929190818152602001828054610ad590610eea565b8015610b225780601f10610af757610100808354040283529160200191610b22565b820191906000526020600020905b815481529060010190602001808311610b0557829003601f168201915b5050506002840154600385015460048601546005870154600690970154959660ff90931695919450925087565b6000546001600160a01b031633146106675760405163118cdaa760e01b81523360048201526024016102c2565b600080546001600160a01b038381166001600160a01b0319831681178455604051919092169283917f8be0079c531659141344cd1fd0a4f28419497f9722a3daafe3b4186f6b6457e09190a35050565b80356001600160a01b0381168114610be357600080fd5b919050565b600060208284031215610bfa57600080fd5b610c0382610bcc565b9392505050565b600080600060408486031215610c1f57600080fd5b610c2884610bcc565b9250602084013567ffffffffffffffff80821115610c4557600080fd5b818601915086601f830112610c5957600080fd5b813581811115610c6857600080fd5b876020828501011115610c7a57600080fd5b6020830194508093505050509250925092565b600060208284031215610c9f57600080fd5b5035919050565b60008060408385031215610cb957600080fd5b610cc283610bcc565b9150602083013560048110610cd657600080fd5b809150509250929050565b6020808252825182820181905260009190848201906040850190845b81811015610d225783516001600160a01b031683529284019291840191600101610cfd565b50909695505050505050565b60008060408385031215610d4157600080fd5b610d4a83610bcc565b915060208301358015158114610cd657600080fd5b60008060408385031215610d7257600080fd5b610d7b83610bcc565b946020939093013593505050565b6000815180845260005b81811015610daf57602081850181015186830182015201610d93565b506000602082860101526020601f19601f83011685010191505092915050565b634e487b7160e01b600052602160045260246000fd5b60048110610e0357634e487b7160e01b600052602160045260246000fd5b9052565b602080825282516001600160a01b03168282015282015160e06040830152600090610e36610100840182610d89565b90506040840151610e4a6060850182610de5565b5060608401516080840152608084015160a084015260a084015160c084015260c084015160e08401528091505092915050565b6001600160a01b038816815260e060208201819052600090610ea190830189610d89565b9050610eb06040830188610de5565b8560608301528460808301528360a08301528260c083015298975050505050505050565b634e487b7160e01b600052604160045260246000fd5b600181811c90821680610efe57607f821691505b602082108103610f1e57634e487b7160e01b600052602260045260246000fd5b50919050565b601f821115610f6e57600081815260208120601f850160051c81016020861015610f4b5750805b601f850160051c820191505b81811015610f6a57828155600101610f57565b5050505b505050565b815167ffffffffffffffff811115610f8d57610f8d610ed4565b610fa181610f9b8454610eea565b84610f24565b602080601f831160018114610fd65760008415610fbe5750858301515b600019600386901b1c1916600185901b178555610f6a565b600085815260208120601f198616915b8281101561100557888601518255948401946001909101908401610fe6565b50858210156110235787850151600019600388901b60f8161c191681555b5050505050600190811b01905550565b60208152816020820152818360408301376000818301604090810191909152601f909201601f19160101919050565b6020808252600f908201526e1059d95b9d081b9bdd08199bdd5b99608a1b604082015260600190565b602081016110998284610de5565b92915050565b8082018082111561109957634e487b7160e01b600052601160045260246000fdfea2646970667358221220c2b3fd00a97a4862d73ef47fb362cdb4f554da6b236cda6c58cb4f8f1704f1f564736f6c63430008140033",
  "linkReferences": {},
  "deployedLinkReferences": {}
}