{
  "_format": "hh-sol-artifact-1",
  "contractName": "GuardRail",
  "sourceName": "contracts/GuardRail.sol",
  "abi": [
    {
      "inputs": [
        {
          "internalType": "address",
          "name": "_registry",
          "type": "address"
        },
        {
          "internalType": "uint256",
          "name": "_maxTxValueEth",
          "type": "uint256"
        },
        {
          "internalType": "uint256",
          "name": "_dailyLimitEth",
          "type": "uint256"
        },
        {
          "internalType": "uint256",
          "name": "_highValueThresholdEth",
          "type": "uint256"
        }
      ],
      "stateMutability": "nonpayable",
      "type": "constructor"
    },
    {
      "inputs": [
        {
          "internalType": "address",
          "name": "owner",
          "type": "address"
        }
      ],
      "name": "OwnableInvalidOwner",
      "type": "error"
    },
    {
      "inputs": [
        {
          "internalType": "address",
          "name": "account",
          "type": "address"
        }
      ],
      "name": "OwnableUnauthorizedAccount",
      "type": "error"
    },
    {
      "inputs": [],
      "name": "ReentrancyGuardReentrantCall",
      "type": "error"
    },
    {
      "anonymous": false,
      "inputs": [
        {
          "indexed": true,
          "internalType": "address",
          "name": "previousOwner",
          "type": "address"
        },
        {
          "indexed": true,
          "internalType": "address",
          "name": "newOwner",
          "type": "address"
        }
      ],
      "name": "OwnershipTransferred",
      "type": "event"
    },
    {
      "anonymous": false,
      "inputs": [
        {
          "indexed": true,
          "internalType": "bytes32",
          "name": "txId",
          "type": "bytes32"
        },
        {
          "indexed": true,
          "internalType": "address",
          "name": "agent",
          "type": "address"
        },
        {
          "indexed": false,
          "internalType": "address",
          "name": "target",
          "type": "address"
        },
        {
          "indexed": false,
          "internalType": "uint256",
          "name": "value",
          "type": "uint256"
        }
      ],
      "name": "TransactionApproved",
      "type": "event"
    },
    {
      "anonymous": false,
      "inputs": [
        {
          "indexed": true,
          "internalType": "bytes32",
          "name": "txId",
          "type": "bytes32"
        },
        {
          "indexed": true,
          "internalType": "address",
          "name": "agent",
          "type": "address"
        },
        {
          "indexed": false,
          "internalType": "string",
          "name": "reason",
          "type": "string"
        },
        {
          "indexed": false,
          "internalType": "enum GuardRail.RiskLevel",
          "name": "risk",
          "type": "uint8"
        }
      ],
      "name": "TransactionBlocked",
      "type": "event"
    },
    {
      "inputs": [
        {
          "internalType": "address",
          "name": "_addr",
          "type": "address"
        }
      ],
      "name": "addToBlacklist",
      "outputs": [],
      "stateMutability": "nonpayable",
      "type": "function"
    },
    {
      "inputs": [
        {
          "internalType": "address",
          "name": "_addr",
          "type": "address"
        }
      ],
      "name": "addToWhitelist",
      "outputs": [],
      "stateMutability": "nonpayable",
      "type": "function"
    },
    {
      "inputs": [
        {
          "internalType": "address",
          "name": "",
          "type": "address"
        }
      ],
      "name": "blacklist",
      "outputs": [
        {
          "internalType": "bool",
          "name": "",
          "type": "bool"
        }
      ],
      "stateMutability": "view",
      "type": "function"
    },
    {
      "inputs": [],
      "name": "dailyLimitWei",
      "outputs": [
        {
          "internalType": "uint256",
          "name": "",
          "type": "uint256"
        }
      ],
      "stateMutability": "view",
      "type": "function"
    },
    {
      "inputs": [
        {
          "internalType": "address",
          "name": "",
          "type": "address"
        }
      ],
      "name": "dailySpent",
      "outputs": [
        {
          "internalType": "uint256",
          "name": "",
          "type": "uint256"
        }
      ],
      "stateMutability": "view",
      "type": "function"
    },
    {
      "inputs": [
        {
          "internalType": "bytes32",
          "name": "",
          "type": "bytes32"
        }
      ],
      "name": "guardedTxs",
      "outputs": [
        {
          "internalType": "bytes32",
          "name": "txId",
          "type": "bytes32"
        },
        {
          "internalType": "address",
          "name": "agent",
          "type": "address"
        },
        {
          "internalType": "address",
          "name": "target",
          "type": "address"
        },
        {
          "internalType": "uint256",
          "name": "value",
          "type": "uint256"
        },
        {
          "internalType": "bytes4",
          "name": "functionSig",
          "type": "bytes4"
        },
        {
          "internalType": "enum GuardRail.RiskLevel",
          "name": "risk",
          "type": "uint8"
        },
        {
          "internalType": "enum GuardRail.TxDecision",
          "name": "decision",
          "type": "uint8"
        },
        {
          "internalType": "string",
          "name": "blockReason",
          "type": "string"
        },
        {
          "internalType": "uint256",
          "name": "timestamp",
          "type": "uint256"
        }
      ],
      "stateMutability": "view",
      "type": "function"
    },
    {
      "inputs": [],
      "name": "highValueThresholdWei",
      "outputs": [
        {
          "internalType": "uint256",
          "name": "",
          "type": "uint256"
        }
      ],
      "stateMutability": "view",
      "type": "function"
    },
    {
      "inputs": [
        {
          "internalType": "address",
          "name": "",
          "type": "address"
        }
      ],
      "name": "lastResetDay",
      "outputs": [
        {
          "internalType": "uint256",
          "name": "",
          "type": "uint256"
        }
      ],
      "stateMutability": "view",
      "type": "function"
    },
    {
      "inputs": [],
      "name": "maxTxValueWei",
      "outputs": [
        {
          "internalType": "uint256",
          "name": "",
          "type": "uint256"
        }
      ],
      "stateMutability": "view",
      "type": "function"
    },
    {
      "inputs": [],
      "name": "owner",
      "outputs": [
        {
          "internalType": "address",
          "name": "",
          "type": "address"
        }
      ],
      "stateMutability": "view",
      "type": "function"
    },
    {
      "inputs": [],
      "name": "registry",
      "outputs": [
        {
          "internalType": "contract AgentRegistry",
          "name": "",
          "type": "address"
        }
      ],
      "stateMutability": "view",
      "type": "function"
    },
    {
      "inputs": [
        {
          "internalType": "address",
          "name": "_addr",
          "type": "address"
        }
      ],
      "name": "removeFromBlacklist",
      "outputs": [],
      "stateMutability": "nonpayable",
      "type": "function"
    },
    {
      "inputs": [
        {
          "internalType": "address",
          "name": "_addr",
          "type": "address"
        }
      ],
      "name": "removeFromWhitelist",
      "outputs": [],
      "stateMutability": "nonpayable",
      "type": "function"
    },
    {
      "inputs": [],
      "name": "renounceOwnership",
      "outputs": [],
      "stateMutability": "nonpayable",
      "type": "function"
    },
    {
      "inputs": [
        {
          "internalType": "address",
          "name": "newOwner",
          "type": "address"
        }
      ],
      "name": "transferOwnership",
      "outputs": [],
      "stateMutability": "nonpayable",
      "type": "function"
    },
    {
      "inputs": [
        {
          "internalType": "uint256",
          "name": "",
          "type": "uint256"
        }
      ],
      "name": "txHistory",
      "outputs": [
        {
          "internalType": "bytes32",
          "name": "",
          "type": "bytes32"
        }
      ],
      "stateMutability": "view",
      "type": "function"
    },
    {
      "inputs": [
        {
          "internalType": "address",
          "name": "_agent",
          "type": "address"
        },
        {
          "internalType": "address",
          "name": "_target",
          "type": "address"
        },
        {
          "internalType": "uint256",
          "name": "_value",
          "type": "uint256"
        },
        {
          "internalType": "bytes4",
          "name": "_functionSig",
          "type": "bytes4"
        }
      ],
      "name": "validateTransaction",
      "outputs": [
        {
          "internalType": "enum GuardRail.TxDecision",
          "name": "",
          "type": "uint8"
        },
        {
          "internalType": "string",
          "name": "",
          "type": "string"
        }
      ],
      "stateMutability": "nonpayable",
      "type": "function"
    },
    {
      "inputs": [
        {
          "internalType": "address",
          "name": "",
          "type": "address"
        }
      ],
      "name": "whitelist",
      "outputs": [
        {
          "internalType": "bool",
          "name": "",
          "type": "bool"
        }
      ],
      "stateMutability": "view",
      "type": "function"
    }
  ],
  "bytecode": "0x608060405234801561001057600080fd5b50604051620010a0380380620010a083398101604081905261003191610119565b338061005757604051631e4fbdf760e01b81526000600482015260240160405180910390fd5b610060816100c9565b5060018055600280546001600160a01b0319166001600160a01b03861617905561009283670de0b6b3a7640000610164565b6003556100a782670de0b6b3a7640000610164565b6004556100bc81670de0b6b3a7640000610164565b6005555061018f92505050565b600080546001600160a01b038381166001600160a01b0319831681178455604051919092169283917f8be0079c531659141344cd1fd0a4f28419497f9722a3daafe3b4186f6b6457e09190a35050565b6000806000806080858703121561012f57600080fd5b84516001600160a01b038116811461014657600080fd5b60208601516040870151606090970151919890975090945092505050565b808202811582820484141761018957634e487b7160e01b600052601160045260246000fd5b92915050565b610f01806200019f6000396000f3fe608060405234801561001057600080fd5b50600436106101165760003560e01c80638da5cb5b116100a2578063e10b1b3811610071578063e10b1b381461026e578063e43252d714610277578063f2fde38b1461028a578063f9f92be41461029d578063ffc8ada6146102c057600080fd5b80638da5cb5b146101e15780639b19251a146101f2578063c5cf45cf14610225578063d1d27c671461024657600080fd5b8063537df3b6116100e9578063537df3b614610175578063715018a61461018857806375fcbd86146101905780637b103999146101a35780638ab1d681146101ce57600080fd5b806319d6f2cd1461011b5780632cca74d81461013757806333b9baa51461014057806344337ea114610160575b600080fd5b61012460055481565b6040519081526020015b60405180910390f35b61012460045481565b61012461014e366004610b6f565b60096020526000908152604090205481565b61017361016e366004610b6f565b6102e0565b005b610173610183366004610b6f565b61030c565b610173610335565b61012461019e366004610b91565b610349565b6002546101b6906001600160a01b031681565b6040516001600160a01b03909116815260200161012e565b6101736101dc366004610b6f565b61036a565b6000546001600160a01b03166101b6565b610215610200366004610b6f565b60076020526000908152604090205460ff1681565b604051901515815260200161012e565b610238610233366004610baa565b610393565b60405161012e929190610c76565b610259610254366004610b91565b610678565b60405161012e99989796959493929190610cae565b61012460035481565b610173610285366004610b6f565b610769565b610173610298366004610b6f565b610795565b6102156102ab366004610b6f565b60066020526000908152604090205460ff1681565b6101246102ce366004610b6f565b60086020526000908152604090205481565b6102e86107d8565b6001600160a01b03166000908152600660205260409020805460ff19166001179055565b6103146107d8565b6001600160a01b03166000908152600660205260409020805460ff19169055565b61033d6107d8565b6103476000610805565b565b600b818154811061035957600080fd5b600091825260209091200154905081565b6103726107d8565b6001600160a01b03166000908152600760205260409020805460ff19169055565b604051606085811b6bffffffffffffffffffffffff19908116602084015285821b166034830152604882018490526001600160e01b03198316606883015242606c8301526000918290608c0160408051808303601f190181529082905280516020909101206002546396d6487960e01b83526001600160a01b038a811660048501529193506000929116906396d6487990602401602060405180830381865afa158015610444573d6000803e3d6000fd5b505050506040513d601f19601f820116820180604052508101906104689190610d28565b6104bc576104b1828989898960036040518060400160405280601e81526020017f4167656e74206e6f742074727573746564206f722073757370656e6465640000815250610855565b93509350505061066f565b6001600160a01b03871660009081526006602052604090205460ff1615610517576104b1828989898960036040518060400160405280601281526020017115185c99d95d08189b1858dadb1a5cdd195960721b815250610855565b600354861115610566576104b1828989898960026040518060400160405280601d81526020017f56616c75652065786365656473206d6178696d756d20616c6c6f776564000000815250610855565b60025460405163274b2ff560e21b81526001600160a01b038a811660048301526000602483015290911690639d2cbfd490604401600060405180830381600087803b1580156105b457600080fd5b505af11580156105c8573d6000803e3d6000fd5b505050506105fd828989898986600060405180604001604052806008815260200167105c1c1c9bdd995960c21b81525061099a565b604080516001600160a01b038981168252602082018990528a169184917fba3c8d58b7be94ada6b4dc929d7b72d064bb6f0669c3d95c55337553aff30977910160405180910390a3600060405180604001604052806008815260200167105c1c1c9bdd995960c21b8152509350935050505b94509492505050565b600a6020526000908152604090208054600182015460028301546003840154600485015460058601805495966001600160a01b03958616969490951694929360e083901b9360ff6401000000008504811694650100000000009004169290916106e090610d4a565b80601f016020809104026020016040519081016040528092919081815260200182805461070c90610d4a565b80156107595780601f1061072e57610100808354040283529160200191610759565b820191906000526020600020905b81548152906001019060200180831161073c57829003601f168201915b5050505050908060060154905089565b6107716107d8565b6001600160a01b03166000908152600760205260409020805460ff19166001179055565b61079d6107d8565b6001600160a01b0381166107cc57604051631e4fbdf760e01b8152600060048201526024015b60405180910390fd5b6107d581610805565b50565b6000546001600160a01b031633146103475760405163118cdaa760e01b81523360048201526024016107c3565b600080546001600160a01b038381166001600160a01b0319831681178455604051919092169283917f8be0079c531659141344cd1fd0a4f28419497f9722a3daafe3b4186f6b6457e09190a35050565b6002546040516396d6487960e01b81526001600160a01b0388811660048301526000926060929116906396d6487990602401602060405180830381865afa1580156108a4573d6000803e3d6000fd5b505050506040513d601f19601f820116820180604052508101906108c89190610d28565b156109345760025460405163274b2ff560e21b81526001600160a01b038a811660048301526001602483015290911690639d2cbfd490604401600060405180830381600087803b15801561091b57600080fd5b505af115801561092f573d6000803e3d6000fd5b505050505b61094589898989898960018a61099a565b876001600160a01b0316897f336ca69452786016328483a7860ebd980ce0f1c469acdd8abb5e6d6254f896168587604051610981929190610d84565b60405180910390a3506001989197509095505050505050565b604051806101200160405280898152602001886001600160a01b03168152602001876001600160a01b03168152602001868152602001856001600160e01b03191681526020018460038111156109f2576109f2610c06565b8152602001836002811115610a0957610a09610c06565b815260208082018490524260409283015260008b8152600a825282902083518155908301516001820180546001600160a01b03199081166001600160a01b0393841617909155928401516002830180549094169116179091556060820151600380830191909155608083015160048301805463ffffffff19811660e09390931c928317825560a086015193919264ffffffffff199091161790640100000000908490811115610aba57610aba610c06565b021790555060c082015160048201805465ff0000000000191665010000000000836002811115610aec57610aec610c06565b021790555060e08201516005820190610b059082610e0b565b5061010091909101516006909101555050600b80546001810182556000919091527f0175b7a638427703f0dbe7bb9bbf987a2551717b34e79f33b5b1008d1fa01db901959095555050505050565b80356001600160a01b0381168114610b6a57600080fd5b919050565b600060208284031215610b8157600080fd5b610b8a82610b53565b9392505050565b600060208284031215610ba357600080fd5b5035919050565b60008060008060808587031215610bc057600080fd5b610bc985610b53565b9350610bd760208601610b53565b92506040850135915060608501356001600160e01b031981168114610bfb57600080fd5b939692955090935050565b634e487b7160e01b600052602160045260246000fd5b60038110610c2c57610c2c610c06565b9052565b6000815180845260005b81811015610c5657602081850181015186830182015201610c3a565b506000602082860101526020601f19601f83011685010191505092915050565b610c808184610c1c565b604060208201526000610c966040830184610c30565b949350505050565b60048110610c2c57610c2c610c06565b8981526001600160a01b03898116602083015288166040820152606081018790526001600160e01b0319861660808201526000610120610cf160a0840188610c9e565b610cfe60c0840187610c1c565b8060e0840152610d1081840186610c30565b915050826101008301529a9950505050505050505050565b600060208284031215610d3a57600080fd5b81518015158114610b8a57600080fd5b600181811c90821680610d5e57607f821691505b602082108103610d7e57634e487b7160e01b600052602260045260246000fd5b50919050565b604081526000610d976040830185610c30565b9050610b8a6020830184610c9e565b634e487b7160e01b600052604160045260246000fd5b601f821115610e0657600081815260208120601f850160051c81016020861015610de35750805b601f850160051c820191505b81811015610e0257828155600101610def565b5050505b505050565b815167ffffffffffffffff811115610e2557610e25610da6565b610e3981610e338454610d4a565b84610dbc565b602080601f831160018114610e6e5760008415610e565750858301515b600019600386901b1c1916600185901b178555610e02565b600085815260208120601f198616915b82811015610e9d57888601518255948401946001909101908401610e7e565b5085821015610ebb5787850151600019600388901b60f8161c191681555b5050505050600190811b0190555056fea2646970667358221220ff02af924141a553687f08a5f0a67b16025d8692f54a824dc74d525a0ee22ee764736f6c63430008140033",
  "linkReferences": {},
  "deployedLinkReferences": {}
}